{
  "contractName": "ContributionReward",
  "abi": [
    {
      "anonymous": false,
      "inputs": [
        {
          "indexed": true,
          "internalType": "address",
          "name": "_avatar",
          "type": "address"
        },
        {
          "indexed": true,
          "internalType": "bytes32",
          "name": "_proposalId",
          "type": "bytes32"
        },
        {
          "indexed": true,
          "internalType": "address",
          "name": "_intVoteInterface",
          "type": "address"
        },
        {
          "indexed": false,
          "internalType": "string",
          "name": "_descriptionHash",
          "type": "string"
        },
        {
          "indexed": false,
          "internalType": "uint256[5]",
          "name": "_rewards",
          "type": "uint256[5]"
        },
        {
          "indexed": false,
          "internalType": "contract IERC20",
          "name": "_externalToken",
          "type": "address"
        },
        {
          "indexed": false,
          "internalType": "address",
          "name": "_beneficiary",
          "type": "address"
        }
      ],
      "name": "NewContributionProposal",
      "type": "event"
    },
    {
      "anonymous": false,
      "inputs": [
        {
          "indexed": true,
          "internalType": "address",
          "name": "_avatar",
          "type": "address"
        },
        {
          "indexed": true,
          "internalType": "bytes32",
          "name": "_proposalId",
          "type": "bytes32"
        },
        {
          "indexed": false,
          "internalType": "int256",
          "name": "_param",
          "type": "int256"
        }
      ],
      "name": "ProposalExecuted",
      "type": "event"
    },
    {
      "anonymous": false,
      "inputs": [
        {
          "indexed": true,
          "internalType": "address",
          "name": "_avatar",
          "type": "address"
        },
        {
          "indexed": true,
          "internalType": "bytes32",
          "name": "_proposalId",
          "type": "bytes32"
        },
        {
          "indexed": true,
          "internalType": "address",
          "name": "_beneficiary",
          "type": "address"
        },
        {
          "indexed": false,
          "internalType": "uint256",
          "name": "_amount",
          "type": "uint256"
        }
      ],
      "name": "RedeemEther",
      "type": "event"
    },
    {
      "anonymous": false,
      "inputs": [
        {
          "indexed": true,
          "internalType": "address",
          "name": "_avatar",
          "type": "address"
        },
        {
          "indexed": true,
          "internalType": "bytes32",
          "name": "_proposalId",
          "type": "bytes32"
        },
        {
          "indexed": true,
          "internalType": "address",
          "name": "_beneficiary",
          "type": "address"
        },
        {
          "indexed": false,
          "internalType": "uint256",
          "name": "_amount",
          "type": "uint256"
        }
      ],
      "name": "RedeemExternalToken",
      "type": "event"
    },
    {
      "constant": true,
      "inputs": [
        {
          "internalType": "contract IERC20",
          "name": "_stakingToken",
          "type": "address"
        },
        {
          "internalType": "bytes32",
          "name": "_proposalId",
          "type": "bytes32"
        }
      ],
      "name": "balanceOfStakingToken",
      "outputs": [
        {
          "internalType": "uint256",
          "name": "",
          "type": "uint256"
        }
      ],
      "payable": false,
      "stateMutability": "view",
      "type": "function"
    },
    {
      "constant": false,
      "inputs": [
        {
          "internalType": "uint256",
          "name": "_amount",
          "type": "uint256"
        },
        {
          "internalType": "address",
          "name": "_beneficiary",
          "type": "address"
        },
        {
          "internalType": "bytes32",
          "name": "_proposalId",
          "type": "bytes32"
        }
      ],
      "name": "burnReputation",
      "outputs": [
        {
          "internalType": "bool",
          "name": "",
          "type": "bool"
        }
      ],
      "payable": false,
      "stateMutability": "nonpayable",
      "type": "function"
    },
    {
      "constant": true,
      "inputs": [
        {
          "internalType": "bytes32",
          "name": "_proposalId",
          "type": "bytes32"
        }
      ],
      "name": "getTotalReputationSupply",
      "outputs": [
        {
          "internalType": "uint256",
          "name": "",
          "type": "uint256"
        }
      ],
      "payable": false,
      "stateMutability": "view",
      "type": "function"
    },
    {
      "constant": false,
      "inputs": [
        {
          "internalType": "uint256",
          "name": "_amount",
          "type": "uint256"
        },
        {
          "internalType": "address",
          "name": "_beneficiary",
          "type": "address"
        },
        {
          "internalType": "bytes32",
          "name": "_proposalId",
          "type": "bytes32"
        }
      ],
      "name": "mintReputation",
      "outputs": [
        {
          "internalType": "bool",
          "name": "",
          "type": "bool"
        }
      ],
      "payable": false,
      "stateMutability": "nonpayable",
      "type": "function"
    },
    {
      "constant": true,
      "inputs": [
        {
          "internalType": "address",
          "name": "",
          "type": "address"
        },
        {
          "internalType": "bytes32",
          "name": "",
          "type": "bytes32"
        }
      ],
      "name": "organizationsProposals",
      "outputs": [
        {
          "internalType": "uint256",
          "name": "ethReward",
          "type": "uint256"
        },
        {
          "internalType": "contract IERC20",
          "name": "externalToken",
          "type": "address"
        },
        {
          "internalType": "uint256",
          "name": "externalTokenReward",
          "type": "uint256"
        },
        {
          "internalType": "address payable",
          "name": "beneficiary",
          "type": "address"
        },
        {
          "internalType": "uint256",
          "name": "periodLength",
          "type": "uint256"
        },
        {
          "internalType": "uint256",
          "name": "numberOfPeriods",
          "type": "uint256"
        },
        {
          "internalType": "uint256",
          "name": "executionTime",
          "type": "uint256"
        }
      ],
      "payable": false,
      "stateMutability": "view",
      "type": "function"
    },
    {
      "constant": true,
      "inputs": [
        {
          "internalType": "bytes32",
          "name": "",
          "type": "bytes32"
        }
      ],
      "name": "parameters",
      "outputs": [
        {
          "internalType": "bytes32",
          "name": "voteApproveParams",
          "type": "bytes32"
        },
        {
          "internalType": "contract IntVoteInterface",
          "name": "intVote",
          "type": "address"
        }
      ],
      "payable": false,
      "stateMutability": "view",
      "type": "function"
    },
    {
      "constant": true,
      "inputs": [
        {
          "internalType": "address",
          "name": "",
          "type": "address"
        },
        {
          "internalType": "bytes32",
          "name": "",
          "type": "bytes32"
        }
      ],
      "name": "proposalsInfo",
      "outputs": [
        {
          "internalType": "uint256",
          "name": "blockNumber",
          "type": "uint256"
        },
        {
          "internalType": "contract Avatar",
          "name": "avatar",
          "type": "address"
        }
      ],
      "payable": false,
      "stateMutability": "view",
      "type": "function"
    },
    {
      "constant": true,
      "inputs": [
        {
          "internalType": "address",
          "name": "_owner",
          "type": "address"
        },
        {
          "internalType": "bytes32",
          "name": "_proposalId",
          "type": "bytes32"
        }
      ],
      "name": "reputationOf",
      "outputs": [
        {
          "internalType": "uint256",
          "name": "",
          "type": "uint256"
        }
      ],
      "payable": false,
      "stateMutability": "view",
      "type": "function"
    },
    {
      "constant": false,
      "inputs": [
        {
          "internalType": "contract IERC20",
          "name": "_stakingToken",
          "type": "address"
        },
        {
          "internalType": "address",
          "name": "_beneficiary",
          "type": "address"
        },
        {
          "internalType": "uint256",
          "name": "_amount",
          "type": "uint256"
        },
        {
          "internalType": "bytes32",
          "name": "_proposalId",
          "type": "bytes32"
        }
      ],
      "name": "stakingTokenTransfer",
      "outputs": [
        {
          "internalType": "bool",
          "name": "",
          "type": "bool"
        }
      ],
      "payable": false,
      "stateMutability": "nonpayable",
      "type": "function"
    },
    {
      "constant": false,
      "inputs": [
        {
          "internalType": "bytes32",
          "name": "_proposalId",
          "type": "bytes32"
        },
        {
          "internalType": "int256",
          "name": "_param",
          "type": "int256"
        }
      ],
      "name": "executeProposal",
      "outputs": [
        {
          "internalType": "bool",
          "name": "",
          "type": "bool"
        }
      ],
      "payable": false,
      "stateMutability": "nonpayable",
      "type": "function"
    },
    {
      "constant": false,
      "inputs": [
        {
          "internalType": "bytes32",
          "name": "_voteApproveParams",
          "type": "bytes32"
        },
        {
          "internalType": "contract IntVoteInterface",
          "name": "_intVote",
          "type": "address"
        }
      ],
      "name": "setParameters",
      "outputs": [
        {
          "internalType": "bytes32",
          "name": "",
          "type": "bytes32"
        }
      ],
      "payable": false,
      "stateMutability": "nonpayable",
      "type": "function"
    },
    {
      "constant": false,
      "inputs": [
        {
          "internalType": "contract Avatar",
          "name": "_avatar",
          "type": "address"
        },
        {
          "internalType": "string",
          "name": "_descriptionHash",
          "type": "string"
        },
        {
          "internalType": "int256",
          "name": "",
          "type": "int256"
        },
        {
          "internalType": "uint256[5]",
          "name": "_rewards",
          "type": "uint256[5]"
        },
        {
          "internalType": "contract IERC20",
          "name": "_externalToken",
          "type": "address"
        },
        {
          "internalType": "address payable",
          "name": "_beneficiary",
          "type": "address"
        }
      ],
      "name": "proposeContributionReward",
      "outputs": [
        {
          "internalType": "bytes32",
          "name": "",
          "type": "bytes32"
        }
      ],
      "payable": false,
      "stateMutability": "nonpayable",
      "type": "function"
    },
    {
      "constant": false,
      "inputs": [
        {
          "internalType": "bytes32",
          "name": "_proposalId",
          "type": "bytes32"
        },
        {
          "internalType": "contract Avatar",
          "name": "_avatar",
          "type": "address"
        }
      ],
      "name": "redeemEther",
      "outputs": [
        {
          "internalType": "uint256",
          "name": "amount",
          "type": "uint256"
        }
      ],
      "payable": false,
      "stateMutability": "nonpayable",
      "type": "function"
    },
    {
      "constant": false,
      "inputs": [
        {
          "internalType": "bytes32",
          "name": "_proposalId",
          "type": "bytes32"
        },
        {
          "internalType": "contract Avatar",
          "name": "_avatar",
          "type": "address"
        }
      ],
      "name": "redeemExternalToken",
      "outputs": [
        {
          "internalType": "uint256",
          "name": "amount",
          "type": "uint256"
        }
      ],
      "payable": false,
      "stateMutability": "nonpayable",
      "type": "function"
    },
    {
      "constant": false,
      "inputs": [
        {
          "internalType": "bytes32",
          "name": "_proposalId",
          "type": "bytes32"
        },
        {
          "internalType": "contract Avatar",
          "name": "_avatar",
          "type": "address"
        },
        {
          "internalType": "bool[4]",
          "name": "_whatToRedeem",
          "type": "bool[4]"
        }
      ],
      "name": "redeem",
      "outputs": [
        {
          "internalType": "uint256",
          "name": "etherReward",
          "type": "uint256"
        },
        {
          "internalType": "uint256",
          "name": "externalTokenReward",
          "type": "uint256"
        }
      ],
      "payable": false,
      "stateMutability": "nonpayable",
      "type": "function"
    },
    {
      "constant": true,
      "inputs": [
        {
          "internalType": "bytes32",
          "name": "_proposalId",
          "type": "bytes32"
        },
        {
          "internalType": "address",
          "name": "_avatar",
          "type": "address"
        },
        {
          "internalType": "uint256",
          "name": "_redeemType",
          "type": "uint256"
        }
      ],
      "name": "getPeriodsToPay",
      "outputs": [
        {
          "internalType": "uint256",
          "name": "",
          "type": "uint256"
        }
      ],
      "payable": false,
      "stateMutability": "view",
      "type": "function"
    },
    {
      "constant": true,
      "inputs": [
        {
          "internalType": "bytes32",
          "name": "_proposalId",
          "type": "bytes32"
        },
        {
          "internalType": "address",
          "name": "_avatar",
          "type": "address"
        },
        {
          "internalType": "uint256",
          "name": "_redeemType",
          "type": "uint256"
        }
      ],
      "name": "getRedeemedPeriods",
      "outputs": [
        {
          "internalType": "uint256",
          "name": "",
          "type": "uint256"
        }
      ],
      "payable": false,
      "stateMutability": "view",
      "type": "function"
    },
    {
      "constant": true,
      "inputs": [
        {
          "internalType": "bytes32",
          "name": "_proposalId",
          "type": "bytes32"
        },
        {
          "internalType": "address",
          "name": "_avatar",
          "type": "address"
        }
      ],
      "name": "getProposalEthReward",
      "outputs": [
        {
          "internalType": "uint256",
          "name": "",
          "type": "uint256"
        }
      ],
      "payable": false,
      "stateMutability": "view",
      "type": "function"
    },
    {
      "constant": true,
      "inputs": [
        {
          "internalType": "bytes32",
          "name": "_proposalId",
          "type": "bytes32"
        },
        {
          "internalType": "address",
          "name": "_avatar",
          "type": "address"
        }
      ],
      "name": "getProposalExternalTokenReward",
      "outputs": [
        {
          "internalType": "uint256",
          "name": "",
          "type": "uint256"
        }
      ],
      "payable": false,
      "stateMutability": "view",
      "type": "function"
    },
    {
      "constant": true,
      "inputs": [
        {
          "internalType": "bytes32",
          "name": "_proposalId",
          "type": "bytes32"
        },
        {
          "internalType": "address",
          "name": "_avatar",
          "type": "address"
        }
      ],
      "name": "getProposalExternalToken",
      "outputs": [
        {
          "internalType": "address",
          "name": "",
          "type": "address"
        }
      ],
      "payable": false,
      "stateMutability": "view",
      "type": "function"
    },
    {
      "constant": true,
      "inputs": [
        {
          "internalType": "bytes32",
          "name": "_proposalId",
          "type": "bytes32"
        },
        {
          "internalType": "address",
          "name": "_avatar",
          "type": "address"
        }
      ],
      "name": "getProposalExecutionTime",
      "outputs": [
        {
          "internalType": "uint256",
          "name": "",
          "type": "uint256"
        }
      ],
      "payable": false,
      "stateMutability": "view",
      "type": "function"
    },
    {
      "constant": true,
      "inputs": [
        {
          "internalType": "bytes32",
          "name": "_voteApproveParams",
          "type": "bytes32"
        },
        {
          "internalType": "contract IntVoteInterface",
          "name": "_intVote",
          "type": "address"
        }
      ],
      "name": "getParametersHash",
      "outputs": [
        {
          "internalType": "bytes32",
          "name": "",
          "type": "bytes32"
        }
      ],
      "payable": false,
      "stateMutability": "pure",
      "type": "function"
    }
  ],
  "bytecode": "0x608060405234801561001057600080fd5b5061262e806100206000396000f3fe608060405234801561001057600080fd5b50600436106101825760003560e01c80639d4c162d116100d8578063d29b5d2f1161008c578063e63b681e11610066578063e63b681e14610677578063f70bbb9a146106a3578063f81f8bf6146106eb57610182565b8063d29b5d2f14610597578063d58bf09a146105c9578063e074ee551461064557610182565b8063b7c251c3116100bd578063b7c251c3146104fd578063bea75f281461052f578063cd3ce3061461056b57610182565b80639d4c162d146104a9578063b551c373146104e057610182565b80636046f71d1161013a5780636b8eb403116101145780636b8eb40314610352578063896488b91461037e5780639588378e1461047d57610182565b80636046f71d146102ce57806360bdbb3f146102fa57806368e14dac1461032657610182565b80631c3a57131161016b5780631c3a5713146102385780632453732a146102765780633a256daa146102a257610182565b8063025068041461018757806306e3a978146101c5575b600080fd5b6101a46004803603602081101561019d57600080fd5b503561071d565b604080519283526001600160a01b0390911660208301528051918290030190f35b6101f1600480360360408110156101db57600080fd5b506001600160a01b03813516906020013561073f565b604080519788526001600160a01b03968716602089015287810195909552929094166060860152608085015260a084019290925260c0830191909152519081900360e00190f35b6102646004803603604081101561024e57600080fd5b50803590602001356001600160a01b031661078f565b60408051918252519081900360200190f35b6102646004803603604081101561028c57600080fd5b50803590602001356001600160a01b03166107bd565b610264600480360360408110156102b857600080fd5b50803590602001356001600160a01b031661080f565b610264600480360360408110156102e457600080fd5b50803590602001356001600160a01b0316610837565b6101a46004803603604081101561031057600080fd5b506001600160a01b03813516906020013561085c565b6102646004803603604081101561033c57600080fd5b50803590602001356001600160a01b0316610886565b6102646004803603604081101561036857600080fd5b506001600160a01b0381351690602001356108e3565b610264600480360361014081101561039557600080fd5b6001600160a01b0382351691908101906040810160208201356401000000008111156103c057600080fd5b8201836020820111156103d257600080fd5b803590602001918460018302840111640100000000831117156103f457600080fd5b91908080601f016020809104026020016040519081016040528093929190818152602001838380828437600092019190915250506040805160a081810190925293968535969095909460c0820194509250602001906005908390839080828437600092019190915250919450505080356001600160a01b039081169250602090910135166109a1565b6102646004803603604081101561049357600080fd5b506001600160a01b038135169060200135610dbb565b6104cc600480360360408110156104bf57600080fd5b5080359060200135610ee2565b604080519115158252519081900360200190f35b610264600480360360208110156104f657600080fd5b5035611077565b6102646004803603606081101561051357600080fd5b508035906001600160a01b0360208201351690604001356111ca565b6104cc6004803603608081101561054557600080fd5b506001600160a01b03813581169160208101359091169060408101359060600135611207565b6102646004803603604081101561058157600080fd5b50803590602001356001600160a01b03166113b4565b6104cc600480360360608110156105ad57600080fd5b508035906001600160a01b036020820135169060400135611659565b61062c600480360360c08110156105df57600080fd5b60408051608081810183528435946001600160a01b0360208201351694810193909260c0840192909184019060049083908390808284376000920191909152509194506118169350505050565b6040805192835260208301919091528051918290030190f35b6102646004803603606081101561065b57600080fd5b508035906001600160a01b036020820135169060400135611852565b6102646004803603604081101561068d57600080fd5b50803590602001356001600160a01b0316611a16565b6106cf600480360360408110156106b957600080fd5b50803590602001356001600160a01b0316611cd5565b604080516001600160a01b039092168252519081900360200190f35b6104cc6004803603606081101561070157600080fd5b508035906001600160a01b036020820135169060400135611d02565b600260205260009081526040902080546001909101546001600160a01b031682565b6001602081815260009384526040808520909152918352912080549181015460028201546003830154600484015460058501546006909501546001600160a01b0394851695939490921692909187565b6001600160a01b03811660009081526001602090815260408083208584529091529020600201545b92915050565b6040805160208082019490945260609290921b7fffffffffffffffffffffffffffffffffffffffff00000000000000000000000016828201528051808303603401815260549092019052805191012090565b6001600160a01b03166000908152600160209081526040808320938352929052206006015490565b6001600160a01b03166000908152600160209081526040808320938352929052205490565b6000602081815292815260408082209093529081522080546001909101546001600160a01b031682565b60008061089384846107bd565b600081815260026020526040902085815560010180546001600160a01b0386167fffffffffffffffffffffffff000000000000000000000000000000000000000090911617905591505092915050565b336000908152602081815260408083208484529091528120600101546001600160a01b0316806109175760009150506107b7565b836001600160a01b03166370a08231826040518263ffffffff1660e01b815260040180826001600160a01b03166001600160a01b0316815260200191505060206040518083038186803b15801561096d57600080fd5b505afa158015610981573d6000803e3d6000fd5b505050506040513d602081101561099757600080fd5b5051949350505050565b60006109ac84611e87565b6109b46123e7565b600260006109c18a612013565b8152602080820192909252604090810160009081208251808401845281548082526001909201546001600160a01b0390811682870181905285517f88737b5e000000000000000000000000000000000000000000000000000000008152600260048201526024810194909452336044850152908e166064840152935190955091936388737b5e9260848084019382900301818787803b158015610a6357600080fd5b505af1158015610a77573d6000803e3d6000fd5b505050506040513d6020811015610a8d57600080fd5b50519050836001600160a01b038116610aa35750335b610aab6123fe565b60408051610100810182526020808b015182526001600160a01b038a169082015290810189600260200201518152602001836001600160a01b0316815260200189600360058110610af857fe5b6020020151815260200189600460058110610b0f57fe5b602002015181526020016000815260200160405180608001604052806000815260200160008152602001600081526020016000815250815250905080600160008d6001600160a01b03166001600160a01b0316815260200190815260200160002060008581526020019081526020016000206000820151816000015560208201518160010160006101000a8154816001600160a01b0302191690836001600160a01b031602179055506040820151816002015560608201518160030160006101000a8154816001600160a01b0302191690836001600160a01b031602179055506080820151816004015560a0820151816005015560c0820151816006015560e082015181600701906004610c2492919061245a565b5090505083602001516001600160a01b0316838c6001600160a01b03167f9f9deada59f7a7d88b95f867083b542e13766cb6e890e40fdee875e4d348b4318d8c8c88604051808060200185600560200280838360005b83811015610c92578181015183820152602001610c7a565b50505050905001846001600160a01b03166001600160a01b03168152602001836001600160a01b03166001600160a01b03168152602001828103825286818151815260200191508051906020019080838360005b83811015610cfe578181015183820152602001610ce6565b50505050905090810190601f168015610d2b5780820380516001836020036101000a031916815260200191505b509550505050505060405180910390a450506040805180820182524381526001600160a01b039a8b166020808301918252948501518c166000908152808652838120858252909552919093209251835551600190920180547fffffffffffffffffffffffff0000000000000000000000000000000000000000169290991691909117909755509495945050505050565b6000610dc56123e7565b5033600090815260208181526040808320858452825291829020825180840190935280548352600101546001600160a01b0316908201819052610e0c5760009150506107b7565b80602001516001600160a01b03166389ae1c906040518163ffffffff1660e01b815260040160206040518083038186803b158015610e4957600080fd5b505afa158015610e5d573d6000803e3d6000fd5b505050506040513d6020811015610e7357600080fd5b50518151604080517f4ee2cd7e0000000000000000000000000000000000000000000000000000000081526001600160a01b038881166004830152602482019390935290519190921691634ee2cd7e916044808301926020929190829003018186803b15801561096d57600080fd5b3360009081526020818152604080832085845290915281206001015483906001600160a01b0316610f5a576040805162461bcd60e51b815260206004820152601260248201527f6f6e6c7920566f74696e674d616368696e650000000000000000000000000000604482015290519081900360640190fd5b610f626123e7565b5033600090815260208181526040808320878452825280832081518083018352815481526001918201546001600160a01b031681850181905285529083528184208885529092529091206006015415610fba57600080fd5b6020808201516001600160a01b039081166000908152600183526040808220898352909352919091206003015416610ff157600080fd5b8360011415611026576020808201516001600160a01b0316600090815260018252604080822088835290925220426006909101555b8481602001516001600160a01b03167fd2632e80f5364f02aded1c64e8a04637b7c8bb9c2db2bedf4b6ac47c013acbc0866040518082815260200191505060405180910390a3506001949350505050565b60006110816123e7565b5033600090815260208181526040808320858452825291829020825180840190935280548352600101546001600160a01b03169082018190526110c85760009150506111c5565b80602001516001600160a01b03166389ae1c906040518163ffffffff1660e01b815260040160206040518083038186803b15801561110557600080fd5b505afa158015611119573d6000803e3d6000fd5b505050506040513d602081101561112f57600080fd5b50518151604080517f981b24d00000000000000000000000000000000000000000000000000000000081526004810192909252516001600160a01b039092169163981b24d091602480820192602092909190829003018186803b15801561119557600080fd5b505afa1580156111a9573d6000803e3d6000fd5b505050506040513d60208110156111bf57600080fd5b50519150505b919050565b6001600160a01b0382166000908152600160209081526040808320868452909152812060070182600481106111fb57fe5b015490505b9392505050565b3360009081526020818152604080832084845290915281206001015482906001600160a01b031661127f576040805162461bcd60e51b815260206004820152601260248201527f6f6e6c7920566f74696e674d616368696e650000000000000000000000000000604482015290519081900360640190fd5b336000908152602081815260408083208684529091529020600101546001600160a01b0316806112b35760009250506113ab565b806001600160a01b0316638da5cb5b6040518163ffffffff1660e01b815260040160206040518083038186803b1580156112ec57600080fd5b505afa158015611300573d6000803e3d6000fd5b505050506040513d602081101561131657600080fd5b50516040805163b9a04cdd60e01b81526001600160a01b038a8116600483015289811660248301526044820189905284811660648301529151919092169163b9a04cdd9160848083019260209291908290030181600087803b15801561137b57600080fd5b505af115801561138f573d6000803e3d6000fd5b505050506040513d60208110156113a557600080fd5b50519250505b50949350505050565b60006113be6123fe565b6001600160a01b038381166000908152600160208181526040808420898552825292839020835161010081018552815481529281015485169183019190915260028101548284015260038101549093166060820152600480840154608080840191909152600585015460a0840152600685015460c084015283519081019384905291939260e085019291600785019182845b81548152602001906001019080831161145057505050919092525050506001600160a01b038416600090815260016020908152604080832088845290915290206006810154919250906114a257600080fd5b60006114b086866002611852565b6000835583519091506114ca90829063ffffffff61226016565b9350831561164e57846001600160a01b0316638da5cb5b6040518163ffffffff1660e01b815260040160206040518083038186803b15801561150b57600080fd5b505afa15801561151f573d6000803e3d6000fd5b505050506040513d602081101561153557600080fd5b50516060840151604080517f634965da000000000000000000000000000000000000000000000000000000008152600481018890526001600160a01b03928316602482015288831660448201529051919092169163634965da9160648083019260209291908290030181600087803b1580156115b057600080fd5b505af11580156115c4573d6000803e3d6000fd5b505050506040513d60208110156115da57600080fd5b50516115e557600080fd5b6115fe816007840160025b01549063ffffffff6122b916565b600983015560608301516040805186815290516001600160a01b03928316928992908916917f7dd55ea53ce2c347b544c257b778e1dd6638f232fa6b94320e740440e72b4b879181900360200190a45b509051905592915050565b3360009081526020818152604080832084845290915281206001015482906001600160a01b03166116d1576040805162461bcd60e51b815260206004820152601260248201527f6f6e6c7920566f74696e674d616368696e650000000000000000000000000000604482015290519081900360640190fd5b336000908152602081815260408083208684529091529020600101546001600160a01b03168061170557600092505061180e565b806001600160a01b0316638da5cb5b6040518163ffffffff1660e01b815260040160206040518083038186803b15801561173e57600080fd5b505afa158015611752573d6000803e3d6000fd5b505050506040513d602081101561176857600080fd5b5051604080517feaf994b2000000000000000000000000000000000000000000000000000000008152600481018990526001600160a01b03888116602483015284811660448301529151919092169163eaf994b29160648083019260209291908290030181600087803b1580156117de57600080fd5b505af11580156117f2573d6000803e3d6000fd5b505050506040513d602081101561180857600080fd5b50519250505b509392505050565b6000808260026020020151156118335761183085856113b4565b91505b60608301511561184a576118478585611a16565b90505b935093915050565b600060038211156118945760405162461bcd60e51b81526004018080602001828103825260268152602001806125a06026913960400191505060405180910390fd5b61189c6123fe565b6001600160a01b0384811660009081526001602081815260408084208a8552825292839020835161010081018552815481529281015485169183019190915260028101548284015260038101549093166060820152600480840154608080840191909152600585015460a0840152600685015460c084015283519081019384905291939260e085019291600785019182845b81548152602001906001019080831161192e5750505050508152505090508060c0015160001415611963576000915050611200565b60808101516000901561199657608082015160c083015161198b90429063ffffffff61231316565b8161199257fe5b0490505b60008260800151600014806119af57508260a001518210155b156119e4576119dd8360e0015186600481106119c757fe5b602002015160a08501519063ffffffff61231316565b9050611a0c565b611a098360e0015186600481106119f757fe5b6020020151839063ffffffff61231316565b90505b9695505050505050565b6000611a206123fe565b6001600160a01b038381166000908152600160208181526040808420898552825292839020835161010081018552815481529281015485169183019190915260028101548284015260038101549093166060820152600480840154608080840191909152600585015460a0840152600685015460c084015283519081019384905291939260e085019291600785019182845b815481526020019060010190808311611ab257505050919092525050506001600160a01b03841660009081526001602090815260408083208884529091529020600681015491925090611b0457600080fd5b6000611b1286866003611852565b6000600284015560018301549091506001600160a01b031615801590611b3c575060008360400151115b15611cc2576040830151611b5790829063ffffffff61226016565b93508315611cc257846001600160a01b0316638da5cb5b6040518163ffffffff1660e01b815260040160206040518083038186803b158015611b9857600080fd5b505afa158015611bac573d6000803e3d6000fd5b505050506040513d6020811015611bc257600080fd5b505160208481015160608601516040805163b9a04cdd60e01b81526001600160a01b039384166004820152918316602483015260448201899052898316606483015251919093169263b9a04cdd9260848083019391928290030181600087803b158015611c2e57600080fd5b505af1158015611c42573d6000803e3d6000fd5b505050506040513d6020811015611c5857600080fd5b5051611c6357600080fd5b611c72816007840160036115f0565b600a83015560608301516040805186815290516001600160a01b03928316928992908916917f5a66e28cdcd3bc22082d9f07be2b6bed5f50f349e5d89f655d750ecdd19883749181900360200190a45b5060409091015160029091015592915050565b6001600160a01b039081166000908152600160208181526040808420958452949052929020909101541690565b3360009081526020818152604080832084845290915281206001015482906001600160a01b0316611d7a576040805162461bcd60e51b815260206004820152601260248201527f6f6e6c7920566f74696e674d616368696e650000000000000000000000000000604482015290519081900360640190fd5b336000908152602081815260408083208684529091529020600101546001600160a01b031680611dae57600092505061180e565b806001600160a01b0316638da5cb5b6040518163ffffffff1660e01b815260040160206040518083038186803b158015611de757600080fd5b505afa158015611dfb573d6000803e3d6000fd5b505050506040513d6020811015611e1157600080fd5b5051604080517f6e94d278000000000000000000000000000000000000000000000000000000008152600481018990526001600160a01b038881166024830152848116604483015291519190921691636e94d2789160648083019260209291908290030181600087803b1580156117de57600080fd5b805115611ec55760405162461bcd60e51b81526004018080602001828103825260238152602001806125086023913960400191505060405180910390fd5b6060810151151580611edb575060808101516001145b611f165760405162461bcd60e51b81526004018080602001828103825260348152602001806124d46034913960400191505060405180910390fd5b608081015115612010578051608082015180820281611f3157fe5b0414611f6e5760405162461bcd60e51b815260040180806020018281038252602b81526020018061252b602b913960400191505060405180910390fd5b6020810151608082015180820281611f8257fe5b0414611fbf5760405162461bcd60e51b81526004018080602001828103825260298152602001806125566029913960400191505060405180910390fd5b6040810151608082015180820281611fd357fe5b04146120105760405162461bcd60e51b81526004018080602001828103825260348152602001806125c66034913960400191505060405180910390fd5b50565b6000816001600160a01b0316638da5cb5b6040518163ffffffff1660e01b815260040160206040518083038186803b15801561204e57600080fd5b505afa158015612062573d6000803e3d6000fd5b505050506040513d602081101561207857600080fd5b5051604080517f9be2faed0000000000000000000000000000000000000000000000000000000081523060048201526001600160a01b03858116602483015291519190921691639be2faed916044808301926020929190829003018186803b1580156120e357600080fd5b505afa1580156120f7573d6000803e3d6000fd5b505050506040513d602081101561210d57600080fd5b5051612160576040805162461bcd60e51b815260206004820152601860248201527f736368656d65206973206e6f7420726567697374657265640000000000000000604482015290519081900360640190fd5b816001600160a01b0316638da5cb5b6040518163ffffffff1660e01b815260040160206040518083038186803b15801561219957600080fd5b505afa1580156121ad573d6000803e3d6000fd5b505050506040513d60208110156121c357600080fd5b5051604080517f1c4d56080000000000000000000000000000000000000000000000000000000081523060048201526001600160a01b03858116602483015291519190921691631c4d5608916044808301926020929190829003018186803b15801561222e57600080fd5b505afa158015612242573d6000803e3d6000fd5b505050506040513d602081101561225857600080fd5b505192915050565b60008261226f575060006107b7565b8282028284828161227c57fe5b04146112005760405162461bcd60e51b815260040180806020018281038252602181526020018061257f6021913960400191505060405180910390fd5b600082820183811015611200576040805162461bcd60e51b815260206004820152601b60248201527f536166654d6174683a206164646974696f6e206f766572666c6f770000000000604482015290519081900360640190fd5b600061120083836040518060400160405280601e81526020017f536166654d6174683a207375627472616374696f6e206f766572666c6f770000815250600081848411156123df5760405162461bcd60e51b81526004018080602001828103825283818151815260200191508051906020019080838360005b838110156123a457818101518382015260200161238c565b50505050905090810190601f1680156123d15780820380516001836020036101000a031916815260200191505b509250505060405180910390fd5b505050900390565b604080518082019091526000808252602082015290565b6040518061010001604052806000815260200160006001600160a01b031681526020016000815260200160006001600160a01b03168152602001600081526020016000815260200160008152602001612455612498565b905290565b8260048101928215612488579160200282015b8281111561248857825182559160200191906001019061246d565b506124949291506124b6565b5090565b60405180608001604052806004906020820280388339509192915050565b6124d091905b8082111561249457600081556001016124bc565b9056fe706572696f644c656e67746820657175616c20302072657175697265206e756d6265724f66506572696f647320746f206265203153475420746f6b656e2066756e6374696f6e616c69747920697320626c6f636b65642e6e756d6265724f66506572696f6473202a20746f6b656e5265776172642077696c6c206f766572666c6f776e756d6265724f66506572696f6473202a206574685265776172642077696c6c206f766572666c6f77536166654d6174683a206d756c7469706c69636174696f6e206f766572666c6f7773686f756c6420626520696e207468652072656465656d6564506572696f64732072616e67656e756d6265724f66506572696f6473202a207465787465726e616c546f6b656e5265776172642077696c6c206f766572666c6f77a265627a7a72315820d74e82eb2d9c856eda560686cf287abf625b57c097998d03d03e849d4900f09964736f6c634300050d0032",
  "source": "pragma solidity 0.5.13;\n\nimport \"@daostack/infra/contracts/votingMachines/IntVoteInterface.sol\";\nimport \"@daostack/infra/contracts/votingMachines/VotingMachineCallbacksInterface.sol\";\nimport \"./UniversalScheme.sol\";\nimport \"../votingMachines/VotingMachineCallbacks.sol\";\n\n\n/**\n * @title A scheme for proposing and rewarding contributions to an organization\n * @dev An agent can ask an organization to recognize a contribution and reward\n * him with token, reputation, ether or any combination.\n */\n\ncontract ContributionReward is\n    UniversalScheme,\n    VotingMachineCallbacks,\n    ProposalExecuteInterface\n{\n    using SafeMath for uint256;\n\n    event NewContributionProposal(\n        address indexed _avatar,\n        bytes32 indexed _proposalId,\n        address indexed _intVoteInterface,\n        string _descriptionHash,\n        uint256[5] _rewards,\n        IERC20 _externalToken,\n        address _beneficiary\n    );\n\n    event ProposalExecuted(\n        address indexed _avatar,\n        bytes32 indexed _proposalId,\n        int256 _param\n    );\n\n    event RedeemEther(\n        address indexed _avatar,\n        bytes32 indexed _proposalId,\n        address indexed _beneficiary,\n        uint256 _amount\n    );\n\n  \n\n    event RedeemExternalToken(\n        address indexed _avatar,\n        bytes32 indexed _proposalId,\n        address indexed _beneficiary,\n        uint256 _amount\n    );\n\n    // A struct holding the data for a contribution proposal\n    struct ContributionProposal {\n        uint256 ethReward;\n        IERC20 externalToken;\n        uint256 externalTokenReward;\n        address payable beneficiary;\n        uint256 periodLength;\n        uint256 numberOfPeriods;\n        uint256 executionTime;\n        uint256[4] redeemedPeriods;\n    }\n\n    // A mapping from the organization (Avatar) address to the saved data of the organization:\n    mapping(address => mapping(bytes32 => ContributionProposal)) public organizationsProposals;\n\n    // A mapping from hashes to parameters (use to store a particular configuration on the controller)\n    struct Parameters {\n        bytes32 voteApproveParams;\n        IntVoteInterface intVote;\n    }\n\n    // A mapping from hashes to parameters (use to store a particular configuration on the controller)\n    mapping(bytes32 => Parameters) public parameters;\n\n    /**\n     * @dev execution of proposals, can only be called by the voting machine in which the vote is held.\n     * @param _proposalId the ID of the voting in the voting machine\n     * @param _param a parameter of the voting result, 1 yes and 2 is no.\n     */\n    function executeProposal(bytes32 _proposalId, int256 _param)\n        external\n        onlyVotingMachine(_proposalId)\n        returns (bool)\n    {\n        ProposalInfo memory proposal = proposalsInfo[msg.sender][_proposalId];\n        require(\n            organizationsProposals[address(proposal.avatar)][_proposalId]\n                .executionTime == 0\n        );\n        require(\n            organizationsProposals[address(proposal.avatar)][_proposalId]\n                .beneficiary != address(0)\n        );\n        // Check if vote was successful:\n        if (_param == 1) {\n            // solhint-disable-next-line not-rely-on-time\n            organizationsProposals[address(proposal.avatar)][_proposalId]\n                .executionTime = now;\n        }\n        emit ProposalExecuted(address(proposal.avatar), _proposalId, _param);\n        return true;\n    }\n\n    /**\n     * @dev hash the parameters, save them if necessary, and return the hash value\n     */\n    function setParameters(\n        bytes32 _voteApproveParams,\n        IntVoteInterface _intVote\n    ) public returns (bytes32) {\n        bytes32 paramsHash = getParametersHash(_voteApproveParams, _intVote);\n        parameters[paramsHash].voteApproveParams = _voteApproveParams;\n        parameters[paramsHash].intVote = _intVote;\n        return paramsHash;\n    }\n\n    /**\n     * @dev Submit a proposal for a reward for a contribution:\n     * @param _avatar Avatar of the organization that the contribution was made for\n     * @param _descriptionHash A hash of the proposal's description\n     * @param _rewards rewards array:\n     *         rewards[0] - Amount of tokens requested per period\n     *         rewards[1] - Amount of ETH requested per period\n     *         rewards[2] - Amount of external tokens requested per period\n     *         rewards[3] - Period length - if set to zero it allows immediate redeeming after execution.\n     *         rewards[4] - Number of periods\n     * @param _beneficiary Who gets the rewards\n     */\n    function proposeContributionReward(\n        Avatar _avatar,\n        string memory _descriptionHash,\n        int256,\n        uint256[5] memory _rewards,\n        IERC20 _externalToken,\n        address payable _beneficiary\n    ) public returns (bytes32) {\n        validateProposalParams( _rewards);\n\n\n            Parameters memory controllerParams\n         = parameters[getParametersFromController(_avatar)];\n        bytes32 contributionId = controllerParams.intVote.propose(\n            2,\n            controllerParams.voteApproveParams,\n            msg.sender,\n            address(_avatar)\n        );\n        address payable beneficiary = _beneficiary;\n        if (beneficiary == address(0)) {\n            beneficiary = msg.sender;\n        }\n        ContributionProposal memory proposal = ContributionProposal({\n            ethReward: _rewards[1],\n            externalToken: _externalToken,\n            externalTokenReward: _rewards[2],\n            beneficiary: beneficiary,\n            periodLength: _rewards[3],\n            numberOfPeriods: _rewards[4],\n            executionTime: 0,\n            redeemedPeriods: [uint256(0), uint256(0), uint256(0), uint256(0)]\n        });\n        organizationsProposals[address(_avatar)][contributionId] = proposal;\n\n        emit NewContributionProposal(\n            address(_avatar),\n            contributionId,\n            address(controllerParams.intVote),\n            _descriptionHash,\n            _rewards,\n            _externalToken,\n            beneficiary\n        );\n        proposalsInfo[address(\n            controllerParams.intVote\n        )][contributionId] = ProposalInfo({\n            blockNumber: block.number,\n            avatar: _avatar\n        });\n        return contributionId;\n    }\n\n\n    /**\n     * @dev RedeemEther reward for proposal\n     * @param _proposalId the ID of the voting in the voting machine\n     * @param _avatar address of the controller\n     * @return amount ether redeemed amount\n     */\n    function redeemEther(bytes32 _proposalId, Avatar _avatar)\n        public\n        returns (uint256 amount)\n    {\n        ContributionProposal memory _proposal = organizationsProposals[address(\n            _avatar\n        )][_proposalId];\n        ContributionProposal storage proposal = organizationsProposals[address(\n            _avatar\n        )][_proposalId];\n        require(proposal.executionTime != 0);\n        uint256 periodsToPay = getPeriodsToPay(\n            _proposalId,\n            address(_avatar),\n            2\n        );\n        //set proposal rewards to zero to prevent reentrancy attack.\n        proposal.ethReward = 0;\n        amount = periodsToPay.mul(_proposal.ethReward);\n\n        if (amount > 0) {\n            require(\n                Controller(_avatar.owner()).sendEther(\n                    amount,\n                    _proposal.beneficiary,\n                    _avatar\n                )\n            );\n            proposal.redeemedPeriods[2] = proposal.redeemedPeriods[2].add(\n                periodsToPay\n            );\n            emit RedeemEther(\n                address(_avatar),\n                _proposalId,\n                _proposal.beneficiary,\n                amount\n            );\n        }\n\n        //restore proposal reward.\n        proposal.ethReward = _proposal.ethReward;\n    }\n\n    /**\n     * @dev RedeemNativeToken reward for proposal\n     * @param _proposalId the ID of the voting in the voting machine\n     * @param _avatar address of the controller\n     * @return amount the external token redeemed amount\n     */\n    function redeemExternalToken(bytes32 _proposalId, Avatar _avatar)\n        public\n        returns (uint256 amount)\n    {\n        ContributionProposal memory _proposal = organizationsProposals[address(\n            _avatar\n        )][_proposalId];\n        ContributionProposal storage proposal = organizationsProposals[address(\n            _avatar\n        )][_proposalId];\n        require(proposal.executionTime != 0);\n        uint256 periodsToPay = getPeriodsToPay(\n            _proposalId,\n            address(_avatar),\n            3\n        );\n        //set proposal rewards to zero to prevent reentrancy attack.\n        proposal.externalTokenReward = 0;\n\n        if (\n            proposal.externalToken != IERC20(0) &&\n            _proposal.externalTokenReward > 0\n        ) {\n            amount = periodsToPay.mul(_proposal.externalTokenReward);\n            if (amount > 0) {\n                require(\n                    Controller(_avatar.owner()).externalTokenTransfer(\n                        _proposal.externalToken,\n                        _proposal.beneficiary,\n                        amount,\n                        _avatar\n                    )\n                );\n                proposal.redeemedPeriods[3] = proposal.redeemedPeriods[3].add(\n                    periodsToPay\n                );\n                emit RedeemExternalToken(\n                    address(_avatar),\n                    _proposalId,\n                    _proposal.beneficiary,\n                    amount\n                );\n            }\n        }\n        //restore proposal reward.\n        proposal.externalTokenReward = _proposal.externalTokenReward;\n    }\n\n    /**\n     * @dev redeem rewards for proposal\n     * @param _proposalId the ID of the voting in the voting machine\n     * @param _avatar address of the controller\n     * @param _whatToRedeem whatToRedeem array:\n     *         whatToRedeem[0] - reputation\n     *         whatToRedeem[1] - nativeTokenReward\n     *         whatToRedeem[2] - Ether\n     *         whatToRedeem[3] - ExternalToken\n     * @return  result boolean array for each redeem type.\n     */\n    function redeem(\n        bytes32 _proposalId,\n        Avatar _avatar,\n        bool[4] memory _whatToRedeem\n    )\n        public\n        returns (\n            uint256 etherReward,\n            uint256 externalTokenReward\n        )\n    {\n        if (_whatToRedeem[2]) {\n            etherReward = redeemEther(_proposalId, _avatar);\n        }\n\n        if (_whatToRedeem[3]) {\n            externalTokenReward = redeemExternalToken(_proposalId, _avatar);\n        }\n    }\n\n    /**\n     * @dev getPeriodsToPay return the periods left to be paid for reputation,nativeToken,ether or externalToken.\n     * The function ignore the reward amount to be paid (which can be zero).\n     * @param _proposalId the ID of the voting in the voting machine\n     * @param _avatar address of the controller\n     * @param _redeemType - the type of the reward  :\n     *         0 - reputation\n     *         1 - nativeTokenReward\n     *         2 - Ether\n     *         3 - ExternalToken\n     * @return  periods left to be paid.\n     */\n    function getPeriodsToPay(\n        bytes32 _proposalId,\n        address _avatar,\n        uint256 _redeemType\n    ) public view returns (uint256) {\n        require(_redeemType <= 3, \"should be in the redeemedPeriods range\");\n\n\n            ContributionProposal memory _proposal\n         = organizationsProposals[_avatar][_proposalId];\n        if (_proposal.executionTime == 0) return 0;\n        uint256 periodsFromExecution;\n        if (_proposal.periodLength > 0) {\n            // solhint-disable-next-line not-rely-on-time\n            periodsFromExecution =\n                (now.sub(_proposal.executionTime)) /\n                (_proposal.periodLength);\n        }\n        uint256 periodsToPay;\n        if (\n            (_proposal.periodLength == 0) ||\n            (periodsFromExecution >= _proposal.numberOfPeriods)\n        ) {\n            periodsToPay = _proposal.numberOfPeriods.sub(\n                _proposal.redeemedPeriods[_redeemType]\n            );\n        } else {\n            periodsToPay = periodsFromExecution.sub(\n                _proposal.redeemedPeriods[_redeemType]\n            );\n        }\n        return periodsToPay;\n    }\n\n    /**\n     * @dev getRedeemedPeriods return the already redeemed periods for reputation, nativeToken, ether or externalToken.\n     * @param _proposalId the ID of the voting in the voting machine\n     * @param _avatar address of the controller\n     * @param _redeemType - the type of the reward  :\n     *         0 - reputation\n     *         1 - nativeTokenReward\n     *         2 - Ether\n     *         3 - ExternalToken\n     * @return redeemed period.\n     */\n    function getRedeemedPeriods(\n        bytes32 _proposalId,\n        address _avatar,\n        uint256 _redeemType\n    ) public view returns (uint256) {\n        return\n            organizationsProposals[_avatar][_proposalId]\n                .redeemedPeriods[_redeemType];\n    }\n\n    function getProposalEthReward(bytes32 _proposalId, address _avatar)\n        public\n        view\n        returns (uint256)\n    {\n        return organizationsProposals[_avatar][_proposalId].ethReward;\n    }\n\n    function getProposalExternalTokenReward(\n        bytes32 _proposalId,\n        address _avatar\n    ) public view returns (uint256) {\n        return organizationsProposals[_avatar][_proposalId].externalTokenReward;\n    }\n\n    function getProposalExternalToken(bytes32 _proposalId, address _avatar)\n        public\n        view\n        returns (address)\n    {\n        return\n            address(organizationsProposals[_avatar][_proposalId].externalToken);\n    }\n\n    function getProposalExecutionTime(bytes32 _proposalId, address _avatar)\n        public\n        view\n        returns (uint256)\n    {\n        return organizationsProposals[_avatar][_proposalId].executionTime;\n    }\n\n    /**\n     * @dev return a hash of the given parameters\n     * @param _voteApproveParams parameters for the voting machine used to approve a contribution\n     * @param _intVote the voting machine used to approve a contribution\n     * @return a hash of the parameters\n     */\n    function getParametersHash(\n        bytes32 _voteApproveParams,\n        IntVoteInterface _intVote\n    ) public pure returns (bytes32) {\n        return (keccak256(abi.encodePacked(_voteApproveParams, _intVote)));\n    }\n\n    /**\n     * @dev validateProposalParams validate proposal's rewards parameters.\n     * The function check for potential overflow upon proposal's redeem.\n     * The function reverts if the params are not valid.\n     * @param _rewards rewards array:\n     *         rewards[0] - Amount of tokens requested per period\n     *         rewards[1] - Amount of ETH requested per period\n     *         rewards[2] - Amount of external tokens requested per period\n     *         rewards[3] - Period length - if set to zero it allows immediate redeeming after execution.\n     *         rewards[4] - Number of periods\n     */\n    function validateProposalParams(\n        uint256[5] memory _rewards\n    ) private pure {\n        //changed for sngls dao\n        require(_rewards[0] == 0, \"SGT token functionality is blocked.\");\n\n        require(\n            ((_rewards[3] > 0) || (_rewards[4] == 1)),\n            \"periodLength equal 0 require numberOfPeriods to be 1\"\n        );\n        if (_rewards[4] > 0) {\n            // This is the only case of overflow not detected by the check below\n            //check that numberOfPeriods * tokenReward will not overflow\n            require(\n                (_rewards[4] * _rewards[0]) / _rewards[4] == _rewards[0],\n                \"numberOfPeriods * tokenReward will overflow\"\n            );\n            //check that numberOfPeriods * ethReward will not overflow\n            require(\n                (_rewards[4] * _rewards[1]) / _rewards[4] == _rewards[1],\n                \"numberOfPeriods * ethReward will overflow\"\n            );\n            //check that numberOfPeriods * texternalTokenReward will not overflow\n            require(\n                (_rewards[4] * _rewards[2]) / _rewards[4] == _rewards[2],\n                \"numberOfPeriods * texternalTokenReward will overflow\"\n            );\n        }\n    }\n}\n",
  "sourcePath": "/home/obaranni/blaize/snglsDAO-smartcontracts/dao-contracts/contracts/universalSchemes/ContributionReward.sol",
  "compiler": {
    "name": "solc",
    "version": "0.5.13+commit.5b0b510c.Emscripten.clang"
  },
  "schemaVersion": "3.1.0",
  "updatedAt": "2020-08-03T16:59:52.344Z",
  "devdoc": {
    "details": "An agent can ask an organization to recognize a contribution and reward him with token, reputation, ether or any combination.",
    "methods": {
      "executeProposal(bytes32,int256)": {
        "details": "execution of proposals, can only be called by the voting machine in which the vote is held.",
        "params": {
          "_param": "a parameter of the voting result, 1 yes and 2 is no.",
          "_proposalId": "the ID of the voting in the voting machine"
        }
      },
      "getParametersHash(bytes32,address)": {
        "details": "return a hash of the given parameters",
        "params": {
          "_intVote": "the voting machine used to approve a contribution",
          "_voteApproveParams": "parameters for the voting machine used to approve a contribution"
        },
        "return": "a hash of the parameters"
      },
      "getPeriodsToPay(bytes32,address,uint256)": {
        "details": "getPeriodsToPay return the periods left to be paid for reputation,nativeToken,ether or externalToken. The function ignore the reward amount to be paid (which can be zero).",
        "params": {
          "_avatar": "address of the controller",
          "_proposalId": "the ID of the voting in the voting machine",
          "_redeemType": "- the type of the reward  :        0 - reputation        1 - nativeTokenReward        2 - Ether        3 - ExternalToken"
        },
        "return": "periods left to be paid."
      },
      "getRedeemedPeriods(bytes32,address,uint256)": {
        "details": "getRedeemedPeriods return the already redeemed periods for reputation, nativeToken, ether or externalToken.",
        "params": {
          "_avatar": "address of the controller",
          "_proposalId": "the ID of the voting in the voting machine",
          "_redeemType": "- the type of the reward  :        0 - reputation        1 - nativeTokenReward        2 - Ether        3 - ExternalToken"
        },
        "return": "redeemed period."
      },
      "proposeContributionReward(address,string,int256,uint256[5],address,address)": {
        "details": "Submit a proposal for a reward for a contribution:",
        "params": {
          "_avatar": "Avatar of the organization that the contribution was made for",
          "_beneficiary": "Who gets the rewards",
          "_descriptionHash": "A hash of the proposal's description",
          "_rewards": "rewards array:        rewards[0] - Amount of tokens requested per period        rewards[1] - Amount of ETH requested per period        rewards[2] - Amount of external tokens requested per period        rewards[3] - Period length - if set to zero it allows immediate redeeming after execution.        rewards[4] - Number of periods"
        }
      },
      "redeem(bytes32,address,bool[4])": {
        "details": "redeem rewards for proposal",
        "params": {
          "_avatar": "address of the controller",
          "_proposalId": "the ID of the voting in the voting machine",
          "_whatToRedeem": "whatToRedeem array:        whatToRedeem[0] - reputation        whatToRedeem[1] - nativeTokenReward        whatToRedeem[2] - Ether        whatToRedeem[3] - ExternalToken"
        },
        "return": "result boolean array for each redeem type."
      },
      "redeemEther(bytes32,address)": {
        "details": "RedeemEther reward for proposal",
        "params": {
          "_avatar": "address of the controller",
          "_proposalId": "the ID of the voting in the voting machine"
        },
        "return": "amount ether redeemed amount"
      },
      "redeemExternalToken(bytes32,address)": {
        "details": "RedeemNativeToken reward for proposal",
        "params": {
          "_avatar": "address of the controller",
          "_proposalId": "the ID of the voting in the voting machine"
        },
        "return": "amount the external token redeemed amount"
      },
      "setParameters(bytes32,address)": {
        "details": "hash the parameters, save them if necessary, and return the hash value"
      }
    },
    "title": "A scheme for proposing and rewarding contributions to an organization"
  },
  "userdoc": {
    "methods": {}
  }
}