{
  "contractName": "LockingSGT4Reputation",
  "abi": [
    {
      "anonymous": false,
      "inputs": [
        {
          "indexed": true,
          "internalType": "address",
          "name": "sender",
          "type": "address"
        },
        {
          "indexed": false,
          "internalType": "uint256",
          "name": "_amount",
          "type": "uint256"
        },
        {
          "indexed": false,
          "internalType": "uint256",
          "name": "_period",
          "type": "uint256"
        }
      ],
      "name": "Lock",
      "type": "event"
    },
    {
      "anonymous": false,
      "inputs": [
        {
          "indexed": true,
          "internalType": "address",
          "name": "_beneficiary",
          "type": "address"
        },
        {
          "indexed": false,
          "internalType": "uint256",
          "name": "_amount",
          "type": "uint256"
        }
      ],
      "name": "Release",
      "type": "event"
    },
    {
      "constant": true,
      "inputs": [],
      "name": "avatar",
      "outputs": [
        {
          "internalType": "contract Avatar",
          "name": "",
          "type": "address"
        }
      ],
      "payable": false,
      "stateMutability": "view",
      "type": "function"
    },
    {
      "constant": true,
      "inputs": [],
      "name": "getAgreementHash",
      "outputs": [
        {
          "internalType": "bytes32",
          "name": "",
          "type": "bytes32"
        }
      ],
      "payable": false,
      "stateMutability": "view",
      "type": "function"
    },
    {
      "constant": true,
      "inputs": [
        {
          "internalType": "address",
          "name": "",
          "type": "address"
        }
      ],
      "name": "lockers",
      "outputs": [
        {
          "internalType": "uint256",
          "name": "amount",
          "type": "uint256"
        },
        {
          "internalType": "uint256",
          "name": "releaseTime",
          "type": "uint256"
        }
      ],
      "payable": false,
      "stateMutability": "view",
      "type": "function"
    },
    {
      "constant": true,
      "inputs": [],
      "name": "minLockingPeriod",
      "outputs": [
        {
          "internalType": "uint256",
          "name": "",
          "type": "uint256"
        }
      ],
      "payable": false,
      "stateMutability": "view",
      "type": "function"
    },
    {
      "constant": true,
      "inputs": [],
      "name": "sgtToken",
      "outputs": [
        {
          "internalType": "contract IERC20",
          "name": "",
          "type": "address"
        }
      ],
      "payable": false,
      "stateMutability": "view",
      "type": "function"
    },
    {
      "constant": true,
      "inputs": [],
      "name": "totalLocked",
      "outputs": [
        {
          "internalType": "uint256",
          "name": "",
          "type": "uint256"
        }
      ],
      "payable": false,
      "stateMutability": "view",
      "type": "function"
    },
    {
      "constant": false,
      "inputs": [],
      "name": "release",
      "outputs": [
        {
          "internalType": "uint256",
          "name": "amount",
          "type": "uint256"
        }
      ],
      "payable": false,
      "stateMutability": "nonpayable",
      "type": "function"
    },
    {
      "constant": false,
      "inputs": [
        {
          "internalType": "uint256",
          "name": "_amount",
          "type": "uint256"
        },
        {
          "internalType": "uint256",
          "name": "_period",
          "type": "uint256"
        },
        {
          "internalType": "bytes32",
          "name": "_agreementHash",
          "type": "bytes32"
        }
      ],
      "name": "lock",
      "outputs": [],
      "payable": false,
      "stateMutability": "nonpayable",
      "type": "function"
    },
    {
      "constant": false,
      "inputs": [
        {
          "internalType": "contract Avatar",
          "name": "_avatar",
          "type": "address"
        },
        {
          "internalType": "contract IERC20",
          "name": "_sgtToken",
          "type": "address"
        },
        {
          "internalType": "uint256",
          "name": "_minLockingPeriod",
          "type": "uint256"
        },
        {
          "internalType": "bytes32",
          "name": "_agreementHash",
          "type": "bytes32"
        }
      ],
      "name": "initialize",
      "outputs": [],
      "payable": false,
      "stateMutability": "nonpayable",
      "type": "function"
    }
  ],
  "bytecode": "0x608060405234801561001057600080fd5b50610db8806100206000396000f3fe608060405234801561001057600080fd5b50600436106100a35760003560e01c8063696da92111610076578063949c30381161005b578063949c30381461013d578063d2d5f5b114610145578063edcb006514610183576100a3565b8063696da9211461012d57806386d1a69f14610135576100a3565b8063166ff030146100a85780632c8e7a21146100cc578063568914121461010b5780635aef7de614610125575b600080fd5b6100b06101ac565b604080516001600160a01b039092168252519081900360200190f35b6100f2600480360360208110156100e257600080fd5b50356001600160a01b03166101bb565b6040805192835260208301919091528051918290030190f35b6101136101d4565b60408051918252519081900360200190f35b6100b06101da565b6101136101e9565b6101136101ef565b61011361050f565b6101816004803603608081101561015b57600080fd5b506001600160a01b03813581169160208101359091169060408101359060600135610515565b005b6101816004803603606081101561019957600080fd5b508035906020810135906040013561062a565b6002546001600160a01b031681565b6003602052600090815260409020805460019091015482565b60045481565b6001546001600160a01b031681565b60005490565b336000908152600360205260408120805461023b5760405162461bcd60e51b815260040180806020018281038252602b815260200180610d59602b913960400191505060405180910390fd5b806001015442101561027e5760405162461bcd60e51b8152600401808060200182810382526031815260200180610cb86031913960400191505060405180910390fd5b80546000825560045490925061029a908363ffffffff610a3a16565b6004908155600154604080517f8da5cb5b00000000000000000000000000000000000000000000000000000000815290516001600160a01b0390921692638da5cb5b928282019260209290829003018186803b1580156102f957600080fd5b505afa15801561030d573d6000803e3d6000fd5b505050506040513d602081101561032357600080fd5b5051600154604080517f6e94d278000000000000000000000000000000000000000000000000000000008152600481018690523360248201526001600160a01b03928316604482015290519190921691636e94d2789160648083019260209291908290030181600087803b15801561039a57600080fd5b505af11580156103ae573d6000803e3d6000fd5b505050506040513d60208110156103c457600080fd5b50516104015760405162461bcd60e51b8152600401808060200182810382526034815260200180610c456034913960400191505060405180910390fd5b600254604080517fa9059cbb0000000000000000000000000000000000000000000000000000000081523360048201526024810185905290516001600160a01b039092169163a9059cbb916044808201926020929091908290030181600087803b15801561046e57600080fd5b505af1158015610482573d6000803e3d6000fd5b505050506040513d602081101561049857600080fd5b50516104d55760405162461bcd60e51b815260040180806020018281038252603f815260200180610c79603f913960400191505060405180910390fd5b60408051838152905133917ff6334794522b9db534a812aaae1af828a2e96aac68473b58e36d7d0bfd67477b919081900360200190a25090565b60055481565b6002546001600160a01b031615610573576040805162461bcd60e51b815260206004820152601b60248201527f63616e2062652063616c6c6564206f6e6c79206f6e652074696d650000000000604482015290519081900360640190fd5b6001600160a01b0383166105ce576040805162461bcd60e51b815260206004820152601460248201527f746f6b656e2063616e6e6f74206265207a65726f000000000000000000000000604482015290519081900360640190fd5b600180546001600160a01b038087167fffffffffffffffffffffffff0000000000000000000000000000000000000000928316179092556005849055600280549286169290911691909117905561062481610a83565b50505050565b80600054811461066b5760405162461bcd60e51b8152600401808060200182810382526028815260200180610ce96028913960400191505060405180910390fd5b600084116106aa5760405162461bcd60e51b8152600401808060200182810382526033815260200180610c126033913960400191505060405180910390fd5b6005548310156106eb5760405162461bcd60e51b8152600401808060200182810382526043815260200180610bcf6043913960600191505060405180910390fd5b600254604080517f23b872dd0000000000000000000000000000000000000000000000000000000081523360048201523060248201526044810187905290516001600160a01b03909216916323b872dd916064808201926020929091908290030181600087803b15801561075e57600080fd5b505af1158015610772573d6000803e3d6000fd5b505050506040513d602081101561078857600080fd5b50516107c55760405162461bcd60e51b8152600401808060200182810382526048815260200180610d116048913960600191505060405180910390fd5b600160009054906101000a90046001600160a01b03166001600160a01b0316638da5cb5b6040518163ffffffff1660e01b815260040160206040518083038186803b15801561081357600080fd5b505afa158015610827573d6000803e3d6000fd5b505050506040513d602081101561083d57600080fd5b5051600154604080517feaf994b2000000000000000000000000000000000000000000000000000000008152600481018890523360248201526001600160a01b0392831660448201529051919092169163eaf994b29160648083019260209291908290030181600087803b1580156108b457600080fd5b505af11580156108c8573d6000803e3d6000fd5b505050506040513d60208110156108de57600080fd5b5051610931576040805162461bcd60e51b815260206004820152601e60248201527f6d696e742072657075746174696f6e2073686f756c6420737563636565640000604482015290519081900360640190fd5b33600090815260036020526040902054156109bb5733600090815260036020526040902054610966908563ffffffff610add16565b3360009081526003602052604090209081556001015461098c428563ffffffff610add16565b11156109b6576109a2428463ffffffff610add16565b336000908152600360205260409020600101555b6109e4565b3360009081526003602052604090208481556109dd428563ffffffff610add16565b6001909101555b6004546109f7908563ffffffff610add16565b6004556040805185815260208101859052815133927f49eaf4942f1237055eb4cfa5f31c9dfe50d5b4ade01e021f7de8be2fbbde557b928290030190a250505050565b6000610a7c83836040518060400160405280601e81526020017f536166654d6174683a207375627472616374696f6e206f766572666c6f770000815250610b37565b9392505050565b60005415610ad8576040805162461bcd60e51b815260206004820152601b60248201527f43616e206e6f74207365742061677265656d656e742074776963650000000000604482015290519081900360640190fd5b600055565b600082820183811015610a7c576040805162461bcd60e51b815260206004820152601b60248201527f536166654d6174683a206164646974696f6e206f766572666c6f770000000000604482015290519081900360640190fd5b60008184841115610bc65760405162461bcd60e51b81526004018080602001828103825283818151815260200191508051906020019080838360005b83811015610b8b578181015183820152602001610b73565b50505050905090810190601f168015610bb85780820380516001836020036101000a031916815260200191505b509250505060405180910390fd5b50505090039056fe4c6f636b696e675347543452657075746174696f6e3a206c6f636b696e6720706572696f642073686f756c64206265203e3d206d696e4c6f636b696e67506572696f644c6f636b696e675347543452657075746174696f6e3a206c6f636b696e6720616d6f756e742073686f756c64206265203e20304c6f636b696e675347543452657075746174696f6e3a6275726e2072657075746174696f6e2073686f756c6420737563636565644c6f636b696e675347543452657075746174696f6e3a2063616e2774207472616e7366657220746f6b656e7320746f207374616b696e6720616464726573734c6f636b696e675347543452657075746174696f6e3a20636865636b20746865206c6f636b20706572696f64207061737353656e646572206d7573742073656e64207468652072696768742061677265656d656e74486173684c6f636b696e675347543452657075746174696f6e3a2063616e6074207472616e7366657220746f6b656e7320746f206c6f636b696e6720636f6e747261637420616464726573734c6f636b696e675347543452657075746174696f6e3a20616d6f756e742073686f756c64206265203e2030a265627a7a72315820a5bfe1b249e50fbd525c0fbd30efcb424963590042380539346da0492d430e7c64736f6c634300050d0032",
  "source": "pragma solidity 0.5.13;\n\nimport \"openzeppelin-solidity/contracts/token/ERC20/IERC20.sol\";\nimport \"openzeppelin-solidity/contracts/math/SafeMath.sol\";\nimport \"../controller/Controller.sol\";\nimport \"./Agreement.sol\";\n\n/**\n * @title A locker contract\n */\n\ncontract LockingSGT4Reputation is Agreement{\n    using SafeMath for uint256;\n\n    event Release(address indexed _beneficiary, uint256 _amount);\n    event Lock(address indexed sender, uint256 _amount, uint256 _period);\n\n    struct Locker {\n        uint256 amount;\n        uint256 releaseTime;\n    }\n    Avatar public avatar;\n    IERC20 public sgtToken;\n\n    // A mapping from lockers addresses their lock balances.\n    mapping(address => Locker) public lockers;\n\n    uint256 public totalLocked;\n    uint256 public minLockingPeriod;\n\n    /**\n     * @dev release function\n     * @return uint256 amount of released tokens/burned reputation\n     */\n    function release() public returns (uint256 amount) {\n        Locker storage locker = lockers[msg.sender];\n\n        require(\n            locker.amount > 0,\n            \"LockingSGT4Reputation: amount should be > 0\"\n        );\n        // solhint-disable-next-line not-rely-on-time\n        require(\n            now >= locker.releaseTime,\n            \"LockingSGT4Reputation: check the lock period pass\"\n        );\n\n        amount = locker.amount;\n        locker.amount = 0;\n        totalLocked = totalLocked.sub(amount);\n        require(\n            Controller(avatar.owner()).burnReputation(\n                amount,\n                msg.sender,\n                address(avatar)\n            ),\n            \"LockingSGT4Reputation:burn reputation should succeed\"\n        );\n        require(\n            sgtToken.transfer(msg.sender, amount),\n            \"LockingSGT4Reputation: can't transfer tokens to staking address\"\n        );\n\n        emit Release(msg.sender, amount);\n    }\n\n    /**\n     * @dev lock function\n     * @param _amount the amount to lock\n     * @param _period the locking period\n     * @param _agreementHash is a hash of agreement required to be added to the TX by participants\n     */\n    function lock(uint256 _amount, uint256 _period,bytes32 _agreementHash)\n    public\n    onlyAgree(_agreementHash) {\n        require(\n            _amount > 0,\n            \"LockingSGT4Reputation: locking amount should be > 0\"\n        );\n        require(\n            _period >= minLockingPeriod,\n            \"LockingSGT4Reputation: locking period should be >= minLockingPeriod\"\n        );\n        require(\n            sgtToken.transferFrom(msg.sender, address(this), _amount),\n            \"LockingSGT4Reputation: can`t transfer tokens to locking contract address\"\n        );\n        require(\n            Controller(avatar.owner()).mintReputation(\n                _amount,\n                msg.sender,\n                address(avatar)\n            ),\n            \"mint reputation should succeed\"\n        );\n\n        if (lockers[msg.sender].amount > 0) {\n            lockers[msg.sender].amount = lockers[msg.sender].amount.add(\n                _amount\n            );\n\n            // if new period is > than previous set it, else left previous\n            if (now.add(_period) > lockers[msg.sender].releaseTime) {\n                lockers[msg.sender].releaseTime = now.add(_period);\n            }\n        } else {\n            Locker storage locker = lockers[msg.sender];\n            locker.amount = _amount;\n\n            // solhint-disable-next-line not-rely-on-time\n            locker.releaseTime = now.add(_period);\n        }\n\n        totalLocked = totalLocked.add(_amount);\n        emit Lock(msg.sender, _amount, _period);\n    }\n\n    /**\n     * @dev initialize\n     * @param _avatar the DAO's avatar\n     * @param _sgtToken the SGT token address to stake on\n     * @param _minLockingPeriod minimum locking period allowed.\n     */\n    function initialize(\n        Avatar _avatar,\n        IERC20 _sgtToken,\n        uint256 _minLockingPeriod,\n        bytes32 _agreementHash\n    ) public {\n        require(sgtToken == IERC20(0), \"can be called only one time\");\n        require(_sgtToken != IERC20(0), \"token cannot be zero\");\n        avatar = _avatar;\n        minLockingPeriod = _minLockingPeriod;\n        sgtToken = _sgtToken;\n        super.setAgreementHash(_agreementHash);\n    }\n}\n",
  "sourcePath": "/home/madi/blaize/snglsDAO-smartcontracts/dao-contracts/contracts/schemes/LockingSGT4Reputation.sol",
  "compiler": {
    "name": "solc",
    "version": "0.5.13+commit.5b0b510c.Emscripten.clang"
  },
  "schemaVersion": "3.1.0",
  "updatedAt": "2020-06-29T01:36:54.327Z",
  "devdoc": {
    "methods": {
      "getAgreementHash()": {
        "details": "getAgreementHash",
        "return": "bytes32 agreementHash"
      },
      "initialize(address,address,uint256,bytes32)": {
        "details": "initialize",
        "params": {
          "_avatar": "the DAO's avatar",
          "_minLockingPeriod": "minimum locking period allowed.",
          "_sgtToken": "the SGT token address to stake on"
        }
      },
      "lock(uint256,uint256,bytes32)": {
        "details": "lock function",
        "params": {
          "_agreementHash": "is a hash of agreement required to be added to the TX by participants",
          "_amount": "the amount to lock",
          "_period": "the locking period"
        }
      },
      "release()": {
        "details": "release function",
        "return": "uint256 amount of released tokens/burned reputation"
      }
    },
    "title": "A locker contract"
  },
  "userdoc": {
    "methods": {}
  }
}